:020000041000EA
:1000000000B5324B212058609868022188439860DF
:10001000D860186158612E4B002199600221596106
:100020000121F02299502B49196001219960352056
:1000300000F044F80222904214D00621196600F024
:1000400034F8196E01211966002018661A6600F04E
:100050002CF8196E196E196E052000F02FF8012189
:100060000842F9D1002199601B49196000215960AB
:100070001A491B48016001219960EB211966A021F2
:10008000196600F012F800219960164914480160C1
:100090000121996001BC002800D000471248134993
:1000A000086003C880F30888084703B5996A0420EC
:1000B0000142FBD001200142F8D103BD02B5186610
:1000C0001866FFF7F2FF186E186E02BD00000240BE
:1000D000000000180000070000035F00212200005C
:1000E000F4000018222000A00001001008ED00E03C
:1000F00000000000000000000000000074B24E7A12
:1001000000200420F7010010C3010010C5010010F9
:10011000C1010010C1010010C1010010C101001097
:10012000C1010010C1010010C1010010C701001081
:10013000C1010010C10100108F0300107B030010EB
:10014000CD010010CD010010CD010010CD01001037
:10015000CD010010CD010010CD010010CD01001027
:10016000CD010010CD010010CD010010CD01001017
:10017000CD010010CD010010CD010010CD01001007
:10018000CD010010CD010010CD010010CD010010F7
:10019000CD010010CD010010CD010010CD010010E7
:1001A000CD010010CD010010CD010010CD010010D7
:1001B000CD010010CD010010CD010010CD010010C7
:1001C00000BE00BE00BE00BE00BE00BEEFF3058054
:1001D000103800BEF2EB8871FC5D0010205E00104C
:1001E0003402001090A31AE700201F49086006C8D7
:1001F00081F3088810471D48006800282FD10DA4FE
:100200000ECC002902D000F012F8F9E71849194A7B
:10021000002000E001C19142FCD1174988471749ED
:1002200088471749884700BEFDE701C901C29A42C5
:10023000FBD37047205E0010C0000020F4020020B5
:1002400054600010000004200000042054600010DE
:10025000001004200010042000000000704709482E
:1002600003F036FC0047000008ED00E0000000D07D
:10027000F802002034470020E92500104D07001047
:10028000A92500105756000006005250ABB360532A
:10029000F858001006005250861C0302085900103E
:1002A000060052505422A29D1059001005005250D1
:1002B000DE65F46854600010F8B5C046064807498A
:1002C000091A8B10C90FC91810B5491003D0044B77
:1002D000002B00D0984710BDF4020020F40200204B
:1002E00000000000054B10B5002B03D00449054861
:1002F00000E000BFFFF7E2FF10BDC04600000000B5
:10030000E8440020A84E001072B65449002008604E
:1003100048608860524848600720086051490A6870
:10032000514882430320800702430A6062B6704747
:1003300072B64E4801684E4B4B430433C25882F3A9
:100340000988BFF36F8FEFF314804A4880F3148855
:10035000BFF36F8F936B9E46EFF309801030F0C8A8
:10036000A046A946B246BB462038F0C8103080F3FC
:10037000098883699E4662B6704772B6734608B4B0
:100380003D493E48086062B608BC9E46704772B65A
:10039000EFF309802038F0C044464D4656465F468C
:1003A000F0C0203831490A68314B53430433C850F8
:1003B000734608B400F0FAFA2C492D4B434304333A
:1003C000C85808BC9E461030F0C8A046A946B246A0
:1003D000BB462038F0C8103080F3098862B67047F9
:1003E00072B622490A68224B53430433C85024484A
:1003F00008601F4B43430433C8581030F0C8A04670
:10040000A946B246BB462038F0C8103080F30988B0
:1004100062B6704715490A68154B53430433C850F8
:10042000734608B400F0C2FA1049114B4343043339
:10043000C85808BC9E461030F0C8A046A946B2462F
:10044000BB462038F0C8103080F309880D480E49AB
:1004500000F0D8FC62B60D488646704710E000E018
:10046000FEFFFF0020ED00E00E000000F80300207A
:10047000181000000200000004ED00E00000001071
:10048000030000001000000000000000FDFFFFFF5F
:10049000F0B5C6462E4B00B598461C6801F066FBC9
:1004A00000294EDB43D0FA220023920003F0A8FB80
:1004B0004246284B2100D2580024821A264804F0D4
:1004C000A3FBD02380221B0652010525234E244F77
:1004D0005A6103E0234B01349C420CD03300634348
:1004E000EB41214A9342F5D8380004F02BFB1D4B19
:1004F00001349C42F2D1D02380221B0652019A6122
:1005000043461C6801F032FB00291ADB14D0FA22A2
:100510000023920003F074FB42460E4B2100D25898
:10052000821A124804F070FB80BCB846F0BDFA2174
:10053000890003F027FBBBE7FA21890003F022FBC7
:10054000EAE73F210A4B0B4A0B4802F031F8C0465C
:10055000F803002064400000144F00101DE6CB0B90
:10056000204F001040420F00C5A70000284F001088
:10057000A84E001048590010C44E0010F0B5C646F1
:100580002D4B00B598461C6801F0F0FA00294DDBB0
:1005900042D0FA220023920003F032FB4246274B5E
:1005A0002100D2580024821A254804F02DFBD023C4
:1005B00080221B0612010525224E234F5A6102E0BC
:1005C000224B9C420CD0330001346343EB41204A60
:1005D0009342F5D8380004F0B5FA1C4B9C42F2D196
:1005E000D02380221B0612019A6143461C6801F049
:1005F000BDFA00291ADB14D0FA220023920003F07E
:10060000FFFA42460D4B2100D258821A114804F0DD
:10061000FBFA80BCB846F0BDFA21890003F0B2FABB
:10062000BCE7FA21890003F0ADFAEAE73F210A4B63
:100630000A4A0B4801F0BCFFF803002064400000A8
:10064000144F00101DE6CB0B344F001080841E00A9
:10065000C5A70000284F0010A84E001048590010F0
:10066000C44E0010F0B5C6462D4B00B598461C6828
:1006700001F07CFA00294DDB42D0FA2200239200DF
:1006800003F0BEFA4246274B2100D2580024821ABA
:10069000254804F0B9FAD02380221B06D200052594
:1006A000224E234F5A6102E0224B9C420CD0330071
:1006B00001346343EB41204A9342F5D8380004F0FB
:1006C00041FA1C4B9C42F2D1D02380221B06D2005F
:1006D0009A6143461C6801F049FA00291ADB14D0DC
:1006E000FA220023920003F08BFA42460D4B2100C0
:1006F000D258821A114804F087FA80BCB846F0BD7F
:10070000FA21890003F03EFABCE7FA21890003F0E0
:1007100039FAEAE73F210A4B0A4A0B4801F048FF41
:10072000F803002064400000144F00101DE6CB0BBE
:100730003C4F001080969800C5A70000284F00107D
:10074000A84E001048590010C44E001010B51920D2
:1007500000F0E8FA0A2000F0E5FA0B2000F0E2FAD7
:100760000C2000F0DFFAD02380221B0692045A628C
:100770008022D2005A62802212015A6280225201E3
:100780005A6204F04DFA00F03FF80B490B4800F0B4
:100790007FF8FA200A49800000F07AF8FA20094927
:1007A000400000F075F8084B0848196804F02CFA6E
:1007B000FFF7BEFD002010BD65060010C409000053
:1007C0007D05001091040010F8030020444F001034
:1007D000C046FDE710B572B6094A11680B025B18F6
:1007E0005B005B18DB00D218064B9C460623624474
:1007F000137062B60121102000F004FB30BFFDE74A
:10080000F80300201810000010B572B6FFF77CFD49
:100810001020134900F010FB0021102000F0F2FA24
:100820000A21102000F064FC80210E4B0E4A49047E
:1008300099500E4A0E495A500E4A0F495A500F4AC3
:1008400099180F4A995001220E4952425A500E49A6
:100850005A5000210D4A995403221A6062B610BD05
:1008600015040010F80300204C400000D1070010D0
:1008700048400000D5070010444000001040000030
:100880004C30000054400000504000006040000028
:10089000F0B5C6460F008046002200B52D4B1978F2
:1008A00000290BD0062909D02B4901328C4663441C
:1008B000032AF4D1002080BCB846F0BD8025130285
:1008C0009B185B0025499B18DB00254CCA1814199E
:1008D0006D0425608024640114192760214C224D89
:1008E00014192560214C224D14192560FC24240183
:1008F0001C19A4468C4466461E481F4C84461F4D56
:100900006344B460F5601E4C1E4D5B183461756124
:100910001D4C1E4D4146B461F5611D4C1D4D01201D
:100920003462756200241B4DB462F5621A4C1B4D93
:100930003463756353601A4BD3181960194BD3187D
:100940001960194BD3181F60034B9C460123624466
:100950001370B0E71014002018100000F8030020F6
:1009600004100000FC0F0000D5070010F80F000075
:1009700012121212C80F00004444444455555555F4
:10098000666666667777777788888888999999996F
:10099000101010101111111122222222333333337F
:1009A0000C1000000810000014100000F0B5D6462E
:1009B0004F464646C0B572B6B34EB44BF358002B03
:1009C00010D101F0D3F8002900DA56E100D124E17A
:1009D000FA220023920003F013F9AC4BF258801A6C
:1009E000F05026E0346801F0C1F8002900DA44E153
:1009F00000D10DE1FA220023920003F001F9A34B8C
:100A00002100F258821AA24804F0FEF801F0AEF874
:100A1000002900DA31E100D1F5E0FA22002392004A
:100A200003F0EEF8994B0421F258821A994804F029
:100A3000EBF801235B429A46513300250327984681
:100A4000954C4346E35C002B23D0062B00D179E084
:100A5000012B00D1A1E0042B00D19EE0636C9946EC
:100A600001F084F8002900DA07E14BD0FA220023D4
:100A7000920003F0C5F8854BF358C01A81454AD35C
:100A80004346E35C032B32D09A1E012A32D9052B50
:100A900030D0824B01359C466444032DD1D1032FC5
:100AA00007D03B02DB195B00DB19DB00F318634462
:100AB0001D70376001F05AF8002900DADDE000D13E
:100AC00092E0FA220023920003F09AF86F4B04217F
:100AD000F258821A724804F097F8032F00D1B1E05F
:100AE00062B63800E0BCBA46B146A846F0BD424600
:100AF0000233A354636C9A45CBD300D192E02F000C
:100B00009A46C6E7FA21890003F03CF85F4BF35898
:100B1000C01A8145B4D201F029F8002900DAACE00E
:100B20006CD0FA220023920003F06AF8574B290098
:100B3000F258821A5B4804F067F850230422E2540A
:100B400000BE9DE780235B04E363E36C564AA36326
:100B5000564B6363564B2363564B22606360564A81
:100B6000564BA260E360564A564B22616361564A77
:100B7000564BA261E3610022544B22626362544AE5
:100B8000544BA262E362544B4246E4500123A35407
:100B9000626C236CA2649B186364A36C994600F09A
:100BA000E5FF002969DB24D0FA220023920003F03C
:100BB00027F8364BF358C01A814500D94EE7502329
:100BC0000222E25400F0D2FF002956DB4AD0FA227A
:100BD0000023920003F014F82C4B2900F258821ADB
:100BE0003E4804F011F839E7FA21890002F0CAFF03
:100BF0006CE7FA21890002F0C5FFDAE7FA218900E3
:100C000002F0C0FF92E7FA21890002F0BBFF09E77A
:100C1000FA21890002F0B6FFF1E6FA21890002F01C
:100C2000B1FFDAE62E4A3B029446DB195B00DB1982
:100C3000DB00F3186344226C1B689A4200D328E758
:100C40002F0026E700F092FF002916DB0FD1FA21D2
:100C5000890002F097FF0D4BF158411A214803F02B
:100C6000D3FF3DE7FA21890002F08CFFB4E7FA22B6
:100C70000023920002F0C4FFEDE73F211A4B1B4A0C
:100C80001B4801F095FCC046F803002064400000BA
:100C9000504F0010144F0010C01300201810000017
:100CA000284F0010684F001044444444D5070010FA
:100CB0001212121255555555666666667777777724
:100CC000888888889999999910101010111111111C
:100CD00022222222333333333CF0FFFF5C4F0010DB
:100CE00008100000744F0010A84E0010605900104A
:100CF000C44E0010094A10B5944640248300634452
:100D00001A68C000624080341440802252011343AC
:100D10001C60034B9C466044416010BD04C0014010
:100D2000004001400123D022834012069362936168
:100D3000094A40219446830063441A68C0004A402F
:100D4000803111408022520113431960034B9C46AD
:100D5000052360444360704704C0014000400140E7
:100D6000024B18688007C00F7047C04600C006409D
:100D700070B5EFF3108C72B60D4D2B68002BFCD0C4
:100D8000BFF35F8F0724CB08C618C05C01230C405B
:100D9000A3401C000440034207D118433070BFF346
:100DA0005F8F2C608CF3108870BD100001F0A8FCE0
:100DB0002C0100D00021044B044ABFF35F8F02C313
:100DC0009342FAD17047C046000100D0800100D0A4
:100DD000044A1078431CDBB2172B00D91023137080
:100DE0007047C04620020020B12110B5024B034AD3
:100DF000034801F0DDFBC046804F0010CC590010C5
:100E0000984F001001238340002904D0034A136047
:100E1000034A13607047034A1360FBE780E200E077
:100E200000E100E080E100E0024B10309B688000B0
:100E3000C058704700ED00E010B5EFF3108C72B6AB
:100E4000114A1368002BFCD0BFF35F8F0F4B10309B
:100E50009B6880001B580E4A934201D099420CD1E6
:100E60000A4B9B681950BFF35F8FBFF35F8F00225F
:100E7000054B1A608CF3108810BD8621054B064A7D
:100E8000064801F095FBC046240100D000ED00E0CB
:100E9000CD010010E04F0010DC590010984F0010F9
:100EA000F0B5DE4657464E464546E0B583B0EFF313
:100EB000108C72B6764A1368002BFCD0BFF35F8F9C
:100EC000744B9A68030010339E009459724A9146FD
:100ED000944248D08C4259D0704D621B2F2A42D880
:100EE00001221700874038009246020000976C4F9D
:100EF0003F683A406B4F93463860BFF35F8FEFF324
:100F000005829046002A43D1220053469A439768AF
:100F1000B94208D199E043001B189B00EB189F6869
:100F20008F424ED01A00062010560028F3DA130024
:100F3000B94200D090E04146002936D1FF3191718D
:100F40005949918059490A789A71594A5B1B5B410A
:100F50005A43120D0A705B46002B50D0554B009A35
:100F60001A604F4B1A604B4B9B689C51BFF35F8FCD
:100F7000BFF35F8F0022464B1A608CF3108803B0DA
:100F8000F0BCBB46B246A946A046F0BD1400EAE755
:100F9000934270D1220053469A439768B942C2D116
:100FA00006215156130000290FDA434AD21A083A93
:100FB0005108120B66D1414A9A80414A0A43DA80AD
:100FC000C9E7062159560029B5DB4A005718B80071
:100FD0002F188246B8689860F879D871062038567C
:100FE000987100280FDA374F9F8052182F4B9200CC
:100FF000AA181D7819705B469571002BAED1294B4C
:10100000009A1A60AFE7181D019004208046B88846
:10101000C244C70A1C2F2CD140050015804604206D
:101020008146C844D044A84440461F1DC01B80468A
:10103000071F254881462548C844804513D83F05E9
:10104000780DE0273F020743CEE7062151561300F3
:101050000029BADA4C4675E76A211D4B1D4A1E4825
:10106000FF3101F0A5FAA3211C4B1D4A1A4801F0DB
:101070009FFAFFF7B9FE36211A4B164A1648FF3180
:1010800001F096FAAB21184B184A134801F090FA78
:10109000240100D000ED00E0CD010010240200206A
:1010A00000E100E080E100E001BDFFFF31470020EA
:1010B000AAAA000080E200E05E02002000F0FFFF2C
:1010C00000F8FFFF01BD0000FC070000FE0F00005C
:1010D00050510010AC590010984F0010685000108B
:1010E000C05900100C5100104051001094590010CC
:1010F000032310B50400074A18409446C0009C43DF
:10110000FC3383406444226881409A4313000B43BC
:10111000236010BD00E400E0F0B50126C6462D4D69
:1011200006432C0000B5731B2F2B44D8EFF3058228
:10113000002A47D0EFF3108C72B627490B68002BBA
:10114000FCD0BFF35F8F254F030025495B1B5B413C
:101150005943090DBB6892009B5849B29846002339
:10116000B0450ED00622A2568A421BD001330C3461
:10117000042BF7D1D1211B4B1B4A1C48490001F01D
:1011800017FABB681A4C9C501A4B1A781970827166
:10119000BFF35F8F0022104B1A608CF3108880BC65
:1011A000B846F0BD5A00D318FF229B00EB189A7185
:1011B000114A9A80E8E7C721104B0B4A0B484900B7
:1011C00001F0F6F992210E4B074A0848FF3101F071
:1011D000EFF9C04624020020240100D000ED00E019
:1011E000AAAA00008C51001078590010984F0010E6
:1011F000CD0100103147002001BDFFFF5851001004
:1012000080510010054B064A1360064A1360536074
:101210009360D360136153619361704780808080D5
:1012200000E400E004E400E0024B9C4661448900D5
:10123000016070474000003410B50400FFF7C8FD9E
:1012400001002000FFF7F0FFFF232371BFF35F8F42
:1012500010BDC04610B50400FFF7BAFD0100200024
:10126000FFF7E2FFFF23A380BFF35F8F10BDC046EF
:101270000A4B1968EFF3108072B60A68002AFCD096
:10128000BFF35F8F1B68BFF35F8F00221A6080F38C
:10129000108840BF002000217047C046144700203E
:1012A0003C2110B5024B034A034801F081F9C046C6
:1012B00028520010DC5A00104C520010682110B562
:1012C000024B034A034801F073F9C0468C520010E8
:1012D000845A0010A8520010412110B5024B034A55
:1012E000034801F065F9C046285200104C5A00101E
:1012F0004C5200105E2110B5024B034A034801F026
:1013000057F9C046FC520010345A00104C520010DD
:1013100070B5002920D003681C7BA1421CD88368CB
:101320000E4884466144090159180D684968002A2D
:1013300012D0A24210D8624412019B185A680120B0
:101340008A4201D9C0B270BD8A4201D00020F9E7BB
:101350001B68AB42F6D8F9E7FFF7A2FFFFFFFF0FCC
:1013600070B5002919D0057BA94216D84B00046836
:101370005B18033BE318002A17D091420FD0AA4212
:101380000BD85000801803382418A1701978002950
:1013900001D11A7070BD6170FBE7FFF78FFF7121FB
:1013A000054B064A064801F003F97021054B034A34
:1013B000034801F0FDF8C0462C530010705A00108D
:1013C000A852001020530010F8B542680400EFF353
:1013D000108572B61368002BFCD0BFF35F8F2068B6
:1013E000CEB2437BB3421AD12369994244D00F0A4B
:1013F000FFB2002E3ED0037BB3423BD3FF23E26813
:101400000B40D318013B1B78BB4223D000206368FC
:10141000BFF35F8F00221A6085F31088F8BD002E9D
:1014200031D0037BB3422ED3FF2322690B40944675
:101430005F000268FF18D219033A9278002A15D08B
:101440008C4519D0E2680F0AD318013B1B78FFB214
:10145000BB42DBD1310000F0C9FD0028D7D1992172
:101460000A4B0B4A0B48490001F0A2F88C45CDD13C
:101470002261CBE7FFF730FF2C21074B044A0548D8
:10148000FF3101F095F8FFF719FFC04668530010CF
:101490001C5A00104C52001044530010F0B54F4637
:1014A000D6464646C0B51F000AAB19780BAB1B7871
:1014B0000500924699460468002909D0637B984646
:1014C000994246D16721384B384A394801F070F8C3
:1014D000A67B002E05D13000E0BCBA46B146A84636
:1014E000F0BD237BB3425DD3720021689219033AA9
:1014F00089184A783300A273002A38D000228A70F3
:101500004A700A70627B90462A4A9446AA686344ED
:101510001B01D31852461A60089A5F609A60099AB4
:10152000DA6000238B704B700B704346002B25D084
:1015300032004146A06863689847002819D03200FD
:1015400041462000FFF70CFF43466373B045C2D10C
:1015500015E0237B8B4225D34A0052180B002168EB
:10156000033A89188A78002AACD11E00CCE7E273CE
:10157000C4E7424631002000FFF7F2FE6673524690
:101580003B00287D00F07AFB041E06D04B46002B62
:1015900003D13100286800F029FD0C9B002B9AD064
:1015A0001C7098E7FFF78AFE6C530010905A0010E9
:1015B0004C520010FFFFFF0FF0B54E46DE46574677
:1015C00045460023E0B58BB00893944B8200D65873
:1015D000099000F0CBFA02000B1E00DAEDE0706813
:1015E000EFF3108872B601680029FCD0BFF35F8F5B
:1015F0003068477B002F5AD10023002499469A4631
:101600000020069307947368BFF35F8F00221A606F
:1016100088F310885346002B08D10028D9D10BB08D
:10162000F0BCBB46B246A946A046F0BD089B494661
:101630001B023B4318009846D047726804000D0017
:10164000EFF3108B72B61368002BFCD0BFF35F8FE3
:10165000002D6FDB23002B4347D03369002B44D090
:10166000434500D0D3E000F081FA02000B1E00DAFF
:10167000A3E0802112196B4109068B4202D301229B
:10168000674B524200210491013103914946019177
:101690005146300002970091FFF700FF0022736867
:1016A0003261BFF35F8F1A608BF3108891E7017B83
:1016B000B94200D287E0B4685A49A14679180901B5
:1016C000894449460C684D68A41A9D41002D3FDDB0
:1016D0004B4609981A685B6800F0D0FA0024002392
:1016E00099469A46069307948DE73368002F0DD0EC
:1016F0005A7BBA420AD0187B874270D819687A00A0
:10170000D2198A18033A9278002A05D0F621464B5E
:10171000464A474800F04CFFDA7B002A3DD19A7BCD
:10172000002A00D19F73DF73F268013FD35D01335C
:10173000D355B3E73369002BD7D0434555D1069A2B
:10174000079B8021121BAB4109068B429AD396E777
:10175000002D01D1002CBBD1002100F03DFCB8428E
:1017600049D14B465C681B68069307944B469B68BF
:101770009A464B46DB6899465346002B41D0336866
:101780001B7BBB4225D3F3680020DB19013B1B7890
:1017900008931B023B43336135E782421FD8500058
:1017A0008218891803394F709A7B002ABBD1FB211C
:1017B000204B1E4A1E4800F0FBFE3F211E4B1F4AD5
:1017C0001F4800F0F5FE3C211E4B1F4A1F4800F049
:1017D000EFFE41211B4B1E4A1C4800F0E9FE682128
:1017E0001C4B1D4A124800F0E3FEA1211B4B1C4A72
:1017F000164800F0DDFE8E211A4B194A134800F0FE
:10180000D7FE9221184B164A104800F0D1FEA421B1
:10181000124B134A0D4800F0CBFEC0460045002095
:10182000FFFFFF7FFFFFFF0FF4530010605A00100F
:10183000A852001018540010A84E0010A85A00100A
:10184000C44E001028520010DC5A00104C520010F8
:101850004C5A00108C520010845A0010B8530010DB
:10186000C05A001094530010AC53001010B5144C23
:101870006368002B04D00A211248FFF7D5FC10BD85
:101880002300114A1021206800F008FB032000F01B
:1018900061F9032000F068FA03200C4900F0A8F970
:1018A000FFF796FA0A4B9C4603232375D0231B06A9
:1018B0001B6860446375074B80006060DC60DAE79A
:1018C0006C0200201447002011130010B9150010FD
:1018D0004000003400450020F0B557464E46DE4635
:1018E0004546E0B51F000023804699468BB0149909
:1018F00016008B46159902AA8A4616A90978D3774D
:10190000079143465A68EFF3108472B61368002BB0
:10191000FCD0BFF35F8F02AA94461F236344049355
:101920004B4603930293534601935B463200009368
:1019300040463B00FFF7B2FD434600280DD15B68EF
:10194000BFF35F8F186084F3108801380BB0F0BCD0
:10195000BB46B246A946A046F0BD1B681B7B83422E
:1019600039D343464246DB6852681B18013B1B785B
:10197000BFF35F8F4946116084F3108802AAD27FBB
:10198000002A02D11B021843E0E7079B002B20D05E
:1019900051460020D847030004000D000B4318D027
:1019A000002909DA8023361BAF411B069F42A8D3CA
:1019B00001260F4F7642A4E700F0D8F806000F1E6C
:1019C0000FDB802336196F411B069F4200D298E738
:1019D000EEE70020BAE74121064B074A074800F02E
:1019E000E7FD3F21064B074A074800F0E1FDC046EE
:1019F000FFFFFF7F285200104C5A00104C5200107D
:101A0000A84E0010A85A0010C44E0010F0B5EFF315
:101A1000058302000C0006000D0085B0002B0AD0E3
:101A20001A4A0020536A9D4203D8926A0130B2429A
:101A300024D305B0F0BD164F7968002923D0029356
:101A40000193144B380000932300FFF745FF011E5C
:101A5000E6DD20BF7B68002B15D03800FFF7B4FC13
:101A60000A4B00205A6A9442E3D89B6A0130B34281
:101A7000DFD2A41A631E9C41E0B2DAE7E31A5A1ED1
:101A80009341D8B2D5E7FFF735FCC046004005408A
:101A90006C02002071120010F0B5EFF30582D646FB
:101AA0004F4646461000C0B51038EFF3108872B6A6
:101AB000214C2368002BFCD0BFF35F8F012319005A
:101AC00081401E4D1F006963AA461D4D29601D4DB2
:101AD0002E78AC463500C5402F402B4215D05346DA
:101AE0005F6A194B8500EB589F4218D36246174B2B
:101AF0008E43EB581670BFF35F8F0022226088F38D
:101B00001088002B06D0984704E0BFF35F8F276052
:101B100088F31088E0BCBA46B146A846F0BD0C4B2D
:101B200092009C46624413681360BFF35F8F0023EA
:101B3000236088F31088EDE7280100D000400540BD
:101B40003C700540324700201847002060440020C8
:101B5000D03F054010B5034B01001800024AFFF7C3
:101B600007F910BD304700202C540010034B596A70
:101B70000A00986A596A8A42FAD1704700400540C3
:101B800070B504000D00164A536A1900966A536A2C
:101B90008B42FAD13000190024184D41AB4205D9CF
:101BA0003F21104B104A114800F002FDAB4211D00A
:101BB000002DF5DB2B000A494A6A9342FCD89A4271
:101BC00007D1074A02E0516A8B4202D1916A8C42E6
:101BD000F9D870BDA642E3D8002DEBDAE0E7C046A5
:101BE00000400540A84E0010045B0010C44E0010D9
:101BF00070B504000D00EFF3108672B61A4A136830
:101C0000002BFCD0BFF35F8F002D1BD02000FFF70F
:101C10000BF9164981420AD02000FFF70DF9012186
:101C20002000FFF7EFF80123A340114A1360114B86
:101C3000A400E550BFF35F8F00220B4B1A6086F3C0
:101C4000108870BD0121A1400A4BA200D5500A4B5B
:101C500020001A788A4305491A70FFF721F90021FC
:101C60002000FFF7CFF8E5E7280100D0991A00100F
:101C7000386005406044002032470020F0B5D64669
:101C80004F464646C0B5304C616A0D00A66A616A8F
:101C9000A942FAD194461D008B4208D805D00120F4
:101CA000E0BCBA46B146A846F0BDB242F7D9EFF360
:101CB000108972B6254C21680029FCD0BFF35F8FD4
:101CC0000124234F844039780E0026438846F1B220
:101CD00039708A46061D1C49B6004C6372501D4A75
:101CE0008600B3500B6A23420BD10B6C00202342B9
:101CF00023D0BFF35F8F0022144B1A6089F3108842
:101D0000CEE74B6A1A008E6A4B6A9342FAD19D4223
:101D100011D801D1B4450ED8C2450AD00A4B1F22B2
:101D20001C625C630123024093400B4A13604346EC
:101D30003B700120DDE70020DBE7C521074B084AA7
:101D4000084800F035FCC04600400540280100D09E
:101D5000324700201847002080E200E05054001075
:101D6000E85A001074540010EFF3108C72B60A4950
:101D70000B68002BFCD0BFF35F8F01238340074A21
:101D80000748136202789A430270BFF35F8F002303
:101D90000B608CF310887047280100D0004005408C
:101DA00032470020682110B5024B034A034800F077
:101DB000FFFBC0468C5200105C5B0010A852001064
:101DC00070B5002919D0057BA94216D84B000468CC
:101DD0005B18033BE318002A17D091420FD0AA42A8
:101DE0000BD85000801803382418A17019780029E6
:101DF00001D11A7070BD6170FBE7FFF7D3FF71214D
:101E0000054B064A064800F0D3FB7021054B034AF8
:101E1000034800F0CDFBC0462C530010485B001077
:101E2000A85200102053001070B506000D001400D9
:101E3000002912D0002A09D08068736898470028CA
:101E400006D0220029003000FFF7BAFF280070BD3D
:101E50002A0021003000FFF7B3FF2000F7E7C0465B
:101E60000023017B4373013310B58373C1730129D0
:101E70000FD9026801320133DBB213700332994289
:101E8000F9D103684A0052189B180022033B5A708C
:101E900010BD0029F5D1FFF785FFC04610B50173CD
:101EA00042608360FFF7DCFF10BDC04670B50400E0
:101EB000081E00D170BD257BA94220D843002168AF
:101EC0001B18033BCB185A78002AF3D0AA4216D825
:101ED0005500AD18033D491900254E784D705D70D1
:101EE00001002000FFF7A0FF310005002000FFF7F0
:101EF000DDFF290002002000FFF796FFDAE7FFF779
:101F000051FFC046F8B504000D001700002950D05D
:101F1000037B8B423FD34E0003687618033E9B1928
:101F20005A78002A3FD19A78002A36D11978FFF7DB
:101F3000BDFF002F09D1237B002811D1AB422AD34A
:101F4000002223689B195A70F8BDE27B237B002A8C
:101F500010D1A27B002A00D1A573E5730028EDD033
:101F6000834218D322684100091852180021033A0D
:101F70009170E3E79A420ED821685700BA188A1880
:101F8000033A5570A27B002AE7D142210C4B0D4A3F
:101F90000D4800F00DFBFFF705FF3B210B4B094AF5
:101FA000094800F005FB3A21094B064A064800F0B3
:101FB000FFFA3821074B034A034800F0F9FAC046FC
:101FC00018540010345B0010C85400103055001035
:101FD00008550010C054001070B5457B0A00290058
:101FE0000400FFF78FFF6073280070BDF8B5040090
:101FF000002939D0437B8B423BD0077BB94249D87B
:102000004D0006686D18033D7519AB780020002B54
:1020100000D1F8BDBB423DD85A00D318033BF25C57
:10202000F0188A4222D0002A02D127E0002A2BD0C1
:10203000BA4223D853009B18033BF3185A788A42BC
:10204000F4D16A785A70002301222000AB706B70C3
:10205000FFF758FF617B020081421DD02000FFF78F
:10206000E3FE60730120D4E70020D2E76B780370B1
:10207000E9E701221900FFF745FFF2E76821094B64
:10208000094A0A4800F094FA6B21094B094A0A48A8
:1020900000F08EFAFFF786FE7121084B054A0648CC
:1020A00000F086FA8C5200105C5B0010A852001001
:1020B0008C5100101C5B0010C854001054550010C7
:1020C000F0B5C646076B04000E00150000B5FB070F
:1020D0000CD4E36A22005E4080232C325B01354041
:1020E00013431D60276380BCB846F0BD0200C023C7
:1020F00030329B0113430C4A1A60436A826A9B0187
:1021000098460620904400F0A7F9434607499B02F1
:10211000984601F037FD0100404601F033FD0021F3
:10212000FFF72EFDD5E7C046010300004E0E00006C
:1021300070B5040006200D0000F08EF92900C000E3
:1021400001F020FDC30906D0104A934214D90023A0
:102150000F4D104901E0402501210022616220005D
:10216000A3620021FFF7ACFF062000F075F92900FB
:10217000800001F007FD70BD7F220240013252084D
:102180009D011900AD181300E7E7C046FEFF0000EF
:10219000C0FF3F00FFFF000070B5040006200D00E7
:1021A00000F05AF9061E31D0194B1A49E3185A1E8D
:1021B00093418022120494465B429B0D164A9B0574
:1021C00063441360154A136018008A689043FBD17A
:1021D0000F4B134AE31859424B4180215B004900E1
:1021E000995220002900FFF7A3FF6E22060060210C
:1021F0002000FFF765FF220080232C329B01134350
:1022000010221A60074B23630323A364300070BDC0
:102210000080FCBF00C0004000E0004000F0004033
:102220002847002001030000F0B54E464546DE4633
:102230005746E0B583B001920C9A05008946934257
:1022400000D27CE01A0E93461E023000002359464D
:102250000C9A01F0D5FC3D4B6C009C466419A4001F
:10226000644463680700834234D32B1FDBB2984673
:10227000012B35D9C02380229B01234312011A6010
:10228000334BAD0059599A4600294FD1019B226822
:102290005B015340E0221A4080235B0123431A6014
:1022A0004246012A35D9802380229B012343120113
:1022B0001A6030003A0000235946676001F0A0FC24
:1022C00053465851012003B0F0BCBB46B246A94664
:1022D000A046F0BD2B1FDBB298466060012BC9D829
:1022E0004B46012BC6D1C02303229B0123431A6016
:1022F000023AA3681A42FCD0019B22685B0153405A
:10230000E0221A4080235B0123431A60104AAD008B
:1023100092464A462168514003220A401A6001222F
:102320004B469A40A3681A42FCD0BCE7586901F0BA
:1023300029FC013043001B18033BFDD2A6E73321E3
:10234000044B054A054800F033F9C04600800040C0
:102350007844002074550010685B00108855001008
:1023600030B50C2083B000F001F9FEF7F9FC00282D
:102370000BD02D482D4A01000300283104C38B42A5
:10238000FCD12B4B436203B030BD2A4CA06700F058
:10239000F5F80122284B1A60636C012BFCD1032253
:1023A000264B1A60234A936B012BFCD10133009317
:1023B0000121234A2348043300F054F80523012166
:1023C0000093214A214800F04DF8214B214D174C34
:1023D0000093002202210420FFF726FF2B00002299
:1023E000012100950520FFF71FFF23000022002197
:1023F00000940720FFF718FF23000022002100941B
:102400000820FFF711FF0A4B002200930021230050
:102410000920FFF709FF2B0000220021009506206C
:10242000FFF702FFAFE7C04678440020006CDC02F3
:102430001BB70000008000403CB0004030B00040BE
:10244000002F685900800240008C864700C002407F
:10245000001BB70040597307014B8000C0587047FC
:1024600078440020F8B51700040034480D001E0021
:1024700001F088FB324B0100FA18324B9A4256D8D1
:10248000380001F07FFB02009823103A5B009A426B
:1024900047D8731E062B3ED8069B013B062B3AD825
:1024A000069B37041B031F432368002B22DB264BAC
:1024B000264EE218531E9A4180239B019C465242AD
:1024C000120B234B120362441A60224B1A60130052
:1024D000B1688B43FBD1C023221D9B0113432122F2
:1024E0002560A0601A602268002AFCDA0822E760F2
:1024F0001A60F8BD3F2322681340AB42D7D1A368CE
:102500001B051B0D8342D2D1EE22E368D202134099
:10251000BB42CCD1EDE71C210F4B104A104800F014
:1025200047F819210F4B0D4A0D4800F041F81121D1
:102530000D4B0A4A0A4800F03BF8C046001BB700A2
:1025400080E84BD380F8A9320040FDBF00C00040B6
:1025500000E0004000F0004098560010785B00104A
:10256000345600107C560010D45500108023024AC7
:102570009B000343D362704700800540AA23064AAC
:102580001B0113602F230549D360054B1960536865
:10259000002BFCDA7047C0460040024000B0FA0051
:1025A0000060024000BEFDE710B5FFF7FBFFC0462C
:1025B00030B50D0083B01900002A0BD0074B084C32
:1025C0000192009302002B00200002F01DFB01206D
:1025D000FFF7E8FF034B1A00F1E7C046E45600108E
:1025E000F45600107C4F0010334B344A70B51A601B
:1025F000334A344B34491A6014008B689C43FBD136
:10260000324D334EB54208D2013E761BB60808CD96
:10261000984723000134B342F9D1FFF7A1FE2D4AB8
:10262000284B1A60284A9368DB43DB01DD09002B45
:10263000F9D14022284B294C294E9A675A671A67CC
:10264000DA66B4420AD22368002B27D0012B2CD1A2
:1026500020000834FEF7FEFDB442F4D3214C224E94
:10266000C0222000B16802F05DF9EFF30583B46089
:10267000002B18D1FEF79EFBFEF7C4FDFFF7F6F81E
:102680001A4C1B4EB44208D2013E361BB60808CC89
:1026900098472B000135B342F9D170BD2000FEF7F9
:1026A000CBFD0834CDE700BEE4E78721114B124A89
:1026B0001248FFF77DFFC04600E00040BFCDFBFEA3
:1026C000FE7F3C0000F0004000C00040E00200201F
:1026D000F0020020FFFFFF0100F00140D8020020BF
:1026E000E00200200000002000ED00E0F0020020E9
:1026F000F402002024570010845B0010445700109F
:102700000FB400B5084883B002F01CFA049B002BFC
:1027100007D005A91800019102F046FA034802F01B
:1027200011FA0120FFF73EFF905700104C4F0010A8
:102730007047C046F8B55746DE464E464546E0B5BA
:1027400099460A9B07009A460D9B884693460B9C28
:102750009B073CD10C9B9C423ED20C9B0B941E1BB6
:1027600015000C005E442A004B4601352100202054
:10277000B847B542F7D1A0460B9C002C20D0454667
:1027800036195346321B013C185D29004B46B847A9
:10279000002CF6D12B00350098460D9B9B070FD5DA
:1027A0005B46EC1A0C9BA3420AD9464698462A007F
:1027B0004B46310020200134B8470135A045F6D8FA
:1027C0002800F0BCBB46B246A946A046F8BD16009C
:1027D0001500002CD3D1E0E71600002CCFD1150056
:1027E000EEE7C046F0B54F464646D646C0B584B083
:1027F00098460EAB1B7894469946129B0D9C109FF1
:10280000119E9A0725D4002E67D1BC4221D2012205
:102810001A409246202C00D1EDE00C9A551E302231
:1028200002E0202C00D17DE001342A55A742F8D8DF
:102830005246002A0DD0B4420BD20C9A551E3022BB
:10284000202C02D173E0202C2ED001342A55B44222
:10285000F9D1DA063ED55A052FD4002C29D10F9A8A
:10286000102A00D1BAE00F9A022A00D1BFE030222C
:102870000C9C227001244A46002A66D15A0700D4D3
:102880009CE02B220C9D2A55013403930C9B62463D
:102890000093029643460194FFF74CFF04B0E0BC5E
:1028A000BA46B146A846F0BD2024DA06EDD55A0551
:1028B00003D4A74269D0B44267D00F9A102A74D0CB
:1028C0000F9A022A57D0202CDFD022000134302565
:1028D0000C9FBD54202CD8D0CDE7012215001D40FF
:1028E000AA461A4236D04A46002A4CD10C321A4225
:1028F00049D1BC429FD2202C00D08EE7202E16D882
:102900002024DA06C1D55A051AD4202F01D0202E52
:10291000D3D11F220F9D102D70D00F9C022C75D08B
:10292000541CD4E75246002A7DD0202EBCD9202446
:10293000DA06AAD55A0503D4202FEAD0202EE8D0F3
:102940000F9A102AA1D120249FE72D220C9D2A55F1
:1029500001349AE7BC4200D37BE7202C00D05CE72F
:10296000DA06F0D55A05EED4202F66D0202EEAD113
:1029700034001F22CEE7202C00D186E762220C9D76
:102980002A5501349FE7013EB3E7621E012CC1D1F5
:102990000F9A102A00D066E79A063DD558220C9C63
:1029A0002270283A6270022465E79A060ED4202C21
:1029B000C9D078220C9D2A55013484E71A0700D427
:1029C00063E720220C9D2A5501345EE7202CBAD003
:1029D00058250C9A12191570013474E79A0608D517
:1029E00058220C9C227030226270022443E760322D
:1029F000F7E77822F5E7002A82D1B1E7A21E013C71
:102A00009D0605D478250C9FBD545EE71400B5E7FC
:102A100058250C9FBD5458E778220C9C2270483AE8
:102A20006270022427E7DA0600D42EE75A0587D41D
:102A3000202F00D03FE71F226CE73C001F2269E7F0
:102A4000F0B557464546DE464E46E0B593B09B4648
:102A50001CAB80CB80461B78894692461E9D09930D
:102A6000002F08D11023219A00249A431300219AA1
:102A70002193520524D4219B61229B0639D4D3B2E1
:102A800002AA1F2694460A3B00246644089308E0E5
:102A90003033DBB201343355AF4211D3202C0FD089
:102AA00007002900380001F06DF8CBB20929EFD9F1
:102AB000089A013494466344DBB23355AF42EDD2F9
:102AC000219B52460693209B494605931F9B4046F7
:102AD0000493099B039502930AAB009301945B4610
:102AE000FFF780FE13B0F0BCBB46B246A946A04635
:102AF000F0BD4122C3E7C046F0B54546DE46574625
:102B00004E46E0B595B09B461E9B1F9D9A4620AB56
:102B10001B78239E0B93229B08909846534609915D
:102B20000A922B4308D1269A10339A431300269A0F
:102B300000242693520529D4269A612392063FD475
:102B400004AA94460A2252421F279146DBB200246F
:102B5000674499440BE03032D2B201343A55AE4268
:102B600014D8AE422ED0202C10D082460D00424602
:102B700033005046290001F043F8D2B2092AEAD9BD
:102B80004A44D2B201343A55AE42EAD9269B0A9A57
:102B90000693259B09990593249B08980493434623
:102BA00003930B9B019402930CAB00935B46FFF7DE
:102BB00019FE15B0F0BCBB46B246A946A046F0BD12
:102BC0004123BDE7D045CED9E0E7C046F0B5574632
:102BD0004E464546DE46E0B58FB081468846924671
:102BE0000893189A199B1000190001F08CFA00281C
:102BF00000D0ADE0189819990122D84B524201F04B
:102C00007DFA002800D0A3E0189819990122D44B2E
:102C1000524201F065FA002800D099E018981999FD
:102C20000022002301F05CFA002800D0CAE1189EBF
:102C3000199F80231C9ADB001A400B921C9A1A429F
:102C400001D106231A9380231C9A1B011A403300DA
:102C50000696079709923B4300D092E0002A00D0E5
:102C60006AE104249B461B9B00259C4200D21D1B4D
:102C700002231C9A1A4009921C9A134203D0634201
:102C800063415B421D405B46002B07D0069A079BC1
:102C90003000390001F0C3F906000F0018981999A7
:102CA0000022002301F01CFA002803D0802109062D
:102CB0007B181F001C9AAB4B009601971340089F8E
:102CC00004931A9B0395029352463B0041464846A3
:102CD00000F084F90500002C4BD020221C996E1CBA
:102CE00011400B0059424B41584210403B002A0012
:102CF00041464530C8470523059300235A465946A7
:102D000003930A330293D30FD21701938B185340C6
:102D1000013C3200009341463B0048460494FFF7D3
:102D20008FFE099ABB460500002A22D05246841A1B
:102D30001B9AA2421DD94F461600D9462A004B467F
:102D4000414620200134B8470135B442F6D310E0A3
:102D50001C9B524604931B9B414603931A9B484677
:102D60000293189B199C00930194089B00F036F97C
:102D7000050028000FB0F0BCBB46B246A946A046ED
:102D8000F0BD794B78009C46400D604401F0CEF9CF
:102D9000764A774B01F061F9764A774B01F036F9C4
:102DA000764A3B031B0B1A4304000D0006981100E2
:102DB000734B002201F021F9724A734B01F04DF977
:102DC00002000B002000290001F020F901F0C6F9F3
:102DD000834601F0ABF96D4A6D4B04000D0001F024
:102DE0003CF900226B4B01F011F901F0B7F96A4A86
:102DF0006A4B29000A90200001F02FF904000A987C
:102E00000D0001F093F9664A664B01F026F90200C5
:102E10000B002000290001F0F0F804000D00020072
:102E20000B000694079501F018F904000D000698B0
:102E3000079902000B0001F0E9F800220C900D91B7
:102E4000594B2000290001F0EAF80022574B01F00D
:102E5000DDF802000B002000290001F0E0F800225C
:102E6000534B01F0D3F802000B002000290001F0C1
:102E7000D6F8069A079B0D0080210400C9050020A2
:102E800001F0BBF802000B002000290001F0BEF8A1
:102E900002000B000C980D9901F0C1F80022374B8D
:102EA00001F0B4F8434B0A9C9C466444230500227D
:102EB00001F0D3F832003B0004000D0001F01EF9D0
:102EC00000282CD1069407955B46C62463339C42A8
:102ED000A441099B64420434002B00D1C3E6069A46
:102EE000079B1100194329D030003900324A334B77
:102EF00001F0FCF8002807D0002230003900304BE8
:102F000001F0EEF8002819D11A9B002B00D1AAE697
:102F10000B9B5A1E93411A9AD31A1A93A3E60123C4
:102F20005B429C46002220002900204BE34401F034
:102F300076F806900791C7E700239B461A9B5B45EE
:102F400049DD5A469B1A013B1A9380231C9ADB00E9
:102F50001A43002300249B461C9284E6FFFFEF7F68
:102F6000FFFFEFFFFFF7FFFF01FCFFFFFB799F5023
:102F70001344D33FB3C8608B288AC63F0000F03F9C
:102F80000000F83F61436F63A787D23F71A37909BF
:102F90004F930A400000E03F1655B5BBB16B0240AD
:102FA000EF39FAFE422EE63F00002C40000024409C
:102FB00000001840FF0300002D431CEBE2361A3FCF
:102FC00080842E41802212069446189B1E00199B75
:102FD00063441F002DE600231A93B6E7F0B545467B
:102FE000DE464E465746E0B595B08B46904699462C
:102FF0001E9A1F9B0A9019001000209D01F083F873
:10300000002800D0B0E11E981F990122C74B524200
:1030100001F066F8002800D037E11E981F990122C0
:10302000C34B524201F06AF8002800D0A7E01E9876
:103030001F990022BF4B01F061F8002800D088E002
:103040001E981F990022BC4B01F04AF8002800D0BE
:103050007FE01E981F990022002301F041F800280C
:1030600000D0FAE000230B938023229C229ADB00FD
:103070001C401A4200D102E1092D00D87CE106A9CA
:103080008C462C00172200233021093C6244013376
:10309000D154EF1A202B00D132E1A342F7D1002204
:1030A000A44B069207931E981F9901F057F805004C
:1030B00001F03CF802000B001E981F9900F09DFFE4
:1030C000069A079B00F0C9FF0890099101F06AF881
:1030D000060001F027F802000B000898099900F09B
:1030E0008CFF0022954B0890099101F007F8002809
:1030F00000D1D2E00136300001F014F8069A079BA7
:1031000000F0F4FF002801D000260135AA46002F68
:1031100000D098E0280001F009F802000B001E988A
:103120001F9900F06AFF854B002206000F0000F097
:10313000D7FF0CAB9A46002845D100223000390059
:103140007E4B00F0DBFF00283DD1EB073BD501357E
:1031500039E0229B42460493219B594603930A98E7
:103160001E9B1F9C0295009301944B46FFF72EFD7A
:1031700015B0F0BCBB46B246A946A046F0BD229BA6
:103180005B0767D403226E4B229901920391219928
:103190000291009342464B4659460A98FFF7CAFAF5
:1031A000E6E706AA94461723280063440A2101345F
:1031B0001E1900F0BFFC3031280031700A2100F0E8
:1031C000B9FC051E76D0202CEBD10323229A1340A4
:1031D000012B1DD1219B002B1AD00B9B002B00D063
:1031E000BBE0229A0C33134200D0B6E0219B9C42F4
:1031F00000D387E006AB9C4617223023624404E0EC
:10320000219901341355A14259D0202CF8D1202402
:10321000229B01940393219B02935346B9E706AA8C
:10322000944617230A216344300001341D1900F02D
:10323000A9FC3031297030000A21013F00F0A2FCC6
:10324000092E46D90600202CE9D155460CAB202486
:103250009A46B8E704223B4B96E71E9A1F9B002034
:10326000002100F0CAFE01230B938023229C229AA6
:10327000DB001E901F911C401A4200D0FCE6002289
:10328000314B0627069207930DE7229B0393219B60
:103290000293042301932D4B7BE7002208980999A0
:1032A000264B00F01DFF002800D02FE7002E4FD145
:1032B00001362BE70323229A1340012B66D0202CE2
:1032C000A6D00B9B002B1FD02D2352461355013443
:1032D0009EE75546202CB9D030233A19002F08D04C
:1032E000172006A9013409180B55202CAED09442A2
:1032F000F6D10CAB9A462E2352461355013462E7A1
:103300002024CCE6202C83D0229B5B0708D4229B70
:103310001B0700D47CE7202352461355013477E77E
:103320002B2352461355013472E7C046FFFFEFFFCF
:10333000FFFFEF7F65CDCD4165CDCDC10000E03F02
:10334000A8570010A057001080842E41B0570010DD
:10335000F30700D4DAE60136D8E6219B013B21933E
:103360009C4200D246E7AAE7229B0393219B02934B
:1033700003230193074B0CE7074BEA009B185C689B
:103380001B682F000693079400248CE6219B002BDA
:1033900095D022E7AC570010305D00100B0010B53F
:1033A000002802D049681B68984710BDF0B5DE467A
:1033B00057464E464546E0B597B01C00209B8346D5
:1033C000894692460C93002900D1CAE12078002555
:1033D000002800D1CCE1CD4B5F460B93CC4BCB46C4
:1033E0000E9308E02A00534659466E1CB847350034
:1033F0002078002878D001342528F3D10823994675
:10340000043B9846023B00269C462078611C030042
:10341000203BDBB2102B03D80B9A9B00D3589F465E
:103420000300303B092B38D9002398462A2800D1C5
:103430009EE000230D932E2844D00200683AD2B2B9
:10344000122A1CD80E9B92009A58974601230C0012
:103450001E43DAE763460C001E43D6E743460C00E2
:103460001E43D2E710230C001E43CEE74B460C0050
:103470001E43CAE7802260785200164301310C00D7
:10348000672845D82428ADD90200253AD2B2422A6D
:10349000A8D8A04992008A58974600231A0000E055
:1034A000013193009B185B001A1808780C00030088
:1034B000303B303A092BF3D90023904601310D936C
:1034C0002E28BAD18020303B9C46C000064360784D
:1034D0000A0084446346092B00D84BE12A2800D116
:1034E00062E10C000131A8E7D9462C00BB46AA4591
:1034F00001D853465D1E53462A0049460020D8474E
:10350000200017B0F0BCBB46B246A946A046F0BDAD
:103510000200693AD2B20F2A00D963E701217E4B3B
:1035200091409C460B400F936346194200D031E115
:103530000A2A27D0072A00D054E721220C9B3243C5
:103540009846059208220D9B04920393102342464D
:1035500002930F9B5946019308CA38009046009386
:103560002A005346FFF76CFA434605000C933FE7E9
:103570000C9B04CB9046002A65DB60780C930C0012
:10358000013156E70C9B0D9A02CB11930B78180072
:103590000C93002A00D012E10C9B002B17D00222C2
:1035A0005242013294460A000D9B8C440F91994679
:1035B0006146944602E0914200D156E153780132CF
:1035C000002BF8D14B4661460D93531A0F9380227E
:1035D0003300D20013409946164204D00F9B0D9A37
:1035E000934200D90F9202221300334010933242CB
:1035F00000D14FE10C9B002B00D197E143460C9387
:1036000023002A004D1B4C46A84699460D9D00E01C
:103610003200002C04D06B1E002D00D135E11D00BE
:1036200053465946561CB8474346985D0028EFD18B
:103630000C9B4C469846109B002B00D075E1119BCB
:1036400035000C93D4E6022216434246524260787B
:1036500090460C000C930131EBE660786C2800D1A9
:10366000F8E0802252001643013108E780229200E0
:1036700060781643013102E76078682800D1EFE0F6
:10368000802201311643FAE6672800D19CE04728E2
:1036900000D1D9E0452800D1D9E00C9A07210732A2
:1036A000130042468B43190003920D9A049602922E
:1036B0000CC93800009201930C912A0053465946D8
:1036C000FFF784FA050093E6462800D180E00C9AC3
:1036D00007210732130042468B43190003920D9ACB
:1036E000049602920CC93800009201930C912A00B2
:1036F00053465946FFF772FC050079E62A00534607
:10370000594625206E1CB847350071E6945B0010C1
:10371000D85B0010245C0010419000006B1C99469F
:103720000C9B04330D93B60700D4DDE00C9B2A00FC
:10373000187859465346B84743464544012B00D8AC
:103740000FE1A0464E465C4632005346013621004A
:103750002020B847B542F7D1A34644460D9B0C93B1
:1037600046E6CE4B20789B460025002800D032E666
:103770000024BCE600218B005B185B0001321918A5
:10378000107830390300303B092BF4D90D91140027
:10379000511C52E66F281ED000D8FDE01022782878
:1037A0001AD09643063A17E00C9AA07808CA023459
:1037B000D943C9170B400D930C92611C3DE6002BB9
:1037C00000D104E7013AECE680221201164364E7D7
:1037D000202216437BE7082271054FD40C218E432B
:1037E00080213000890008400E4200D0BBE00C9BD5
:1037F00004339946F10500D536E10C9B710600D5DE
:10380000A7E0310600D43FE11988434604930D9B9D
:1038100005960393002302920193009153462A00D8
:1038200059463800FFF70CF94B4605000C93DFE5CD
:10383000582826D002226228CED0720500D5B3E0E7
:10384000102296433200B2E0802212011643202259
:10385000164322E7C0229200A0781643E11C0EE630
:10386000C022A0781643E11C09E663468C46190085
:1038700063464A465B1A0D920F93A8E60D218E43CC
:10388000AEE720221643103AA6E70C9B4C4698461A
:103890001600D0E60F9B984500D8F7E0424656192F
:1038A000F61A4B460C930D9B0F91994623005C46EC
:1038B0009B462A005346013521002020B847AE42DE
:1038C000F7D14B460D930C9B0F9999465B46A34647
:1038D0001C00434601330F930B780C930C9800287F
:1038E00000D08BE62E00AAE64346012B33D96B1E8F
:1038F0004344994623002E004C46A9465D469B460C
:1039000032005346013629002020B847B442F7D18F
:103910005B46AB464D46A1461C000C9B4A461878B8
:10392000594653464544B84718E735000F9B98451C
:10393000D8D94246A0465C465619F61A2A00534684
:10394000013521002020B847AE42F7D1A3464446B6
:1039500075E6197859E70C9B2A00187859465346A2
:10396000B8474D46FAE6434607930D9B072006935A
:1039700000230C9908960731814304920593029322
:103980000CC90C910092019359462A005346380005
:10399000FFF7B2F805002BE51022330093431A001D
:1039A000692877D1710502D511229643320091051D
:1039B0001BD40C9B1E1DD10547D40C9B51063BD537
:1039C00019780800434604930D9BC90F03930A23FB
:1039D00005920293019100902A00534659463800FF
:1039E000FFF72EF80C96050002E5082307209C46F9
:1039F0000C99073181438C44634603C90C934346B9
:103A000007930D9B089206930A22002304920593C4
:103A1000CB0F0293CB1712931393129A139B16009A
:103A20004640180048401496159014981599801A2D
:103A3000994102000B00A5E7110620D50021595E2F
:103A4000CB17C818584080B2BCE7196843460493A6
:103A50000D9B059203930A230293CB0F0193CB177F
:103A6000C91859400091B7E7434604930D9B05964A
:103A700003930C9B029201901B680093CEE6196899
:103A8000CB17C81858409DE71968BEE60F9B013355
:103A90000F9323E71E000A229EE6C046312700103E
:103AA00000B585B0039101210290009303481300F3
:103AB0004A4202A9FFF77AFC05B000BD9D33001011
:103AC00001480421014B1847A0020020F13A0010E0
:103AD000142310B50100188804331B88984710BDC3
:103AE000162310B50100188802331B88984710BDB3
:103AF000F8B54746CE4680B50F1E19D01423994617
:103B0000043304000025012698464B461888434696
:103B100021681B88984701C4431E984101354042E3
:103B20000640AF42F1D13000C0BCB946B046F8BD46
:103B30000126F8E7124A936F9B0815D29066D1666A
:103B4000002905D0FFE7FFE7FFE7516F106F7047CF
:103B500004B580210906C2175140002800D0C8438F
:103B600001F092F9002104BDF0B5146E556E576F47
:103B7000166FFFF7E3FF1466556657671667F0BDCB
:103B8000000000D0114A936F9B0813D21066516653
:103B9000002905D0FFE7FFE7FFE7516F106F70477F
:103BA00004B5002801D00020C04301F06DF90021C8
:103BB00004BDC046F0B5146E556E576F166FFFF713
:103BC000E5FF1466556657671667F0BD000000D024
:103BD00094464A4A926F9208624601D228E0C04653
:103BE000F0B5464E346E756E776F366F00F020F884
:103BF0009446424A14665566576716676246F0BD9A
:103C000094463E4A926F9208624601D254E0C04602
:103C1000F0B53A4E346E756E776F366F00F04CF833
:103C20009446364A14665566576716676246F0BD75
:103C3000002B24DB11D000293EDA00B5C9434042F5
:103C400000D1013100F038F8C943404200D10131C0
:103C5000DB43524200D1013300BD002AEBD10028E2
:103C600001D1002905D00020C90FC90701D1C043E7
:103C7000410800B501F000F90022002300BD00B5A5
:103C800000290ADBDB43524200D1013300F014F873
:103C9000C943404200D1013100BDC943404200D177
:103CA0000131DB43524200D1013300F005F8DB4320
:103CB000524200D1013300BD002923D1002B18D17D
:103CC000002A0CD0BC460D4F38667A6600210023CE
:103CD000FFE7FFE7FFE77A6F386F67467047002816
:103CE00001D00748010000B501F0C6F8002200230A
:103CF00000BD02000B00002000217047000000D032
:103D0000FFFFFFFF002B00D0BFE0130C28D1002ADB
:103D1000E7D080B4114F39667A66FFE7FFE730B429
:103D2000040C7B6F396F1B0423433B667A66FFE705
:103D3000FFE7FFE7C04684B27B6F3D6F1B04234360
:103D40003B667A66FFE7FFE7C04600232C042D0C94
:103D50007A6F386F00196941B0BC7047000000D01D
:103D6000F0B594460025140E01D112020835140F47
:103D700001D112010435940F01D192000235D40F04
:103D800001D152000135D40B0134254F7C66254CFE
:103D90003C660E0C93B2FFE7FFE7FFE73C6F66431C
:103DA000360C7703BE467343DF0B5B04C01AB94180
:103DB000130C7343DB18C91ACE086643360CB6449D
:103DC00093B273431F0F1B01C01AB941130C734305
:103DD0001F0B1B05C01AB941860D8F023E43664377
:103DE000360C092D24DB520A7243801A7703460AE7
:103DF0006643360C16235B1BDE40DF40BF1964466A
:103E00006643821B7046043506330100D940A84042
:103E1000C01900D30131A24206D20023F0BD000038
:103E2000000000D0FFFFFFFF121B0130F3D3F1E7CA
:103E300009277F1BFE406446A2B27243801A00D25B
:103E40000139220C7243130C1204821A99410B009F
:103E50007046043513370100F940A840801900D39B
:103E60000131002B02D1A2420AD2F0BD013000D3B1
:103E70000131121BFAD2013BF8D1A24200D2F0BDAF
:103E8000013000D30131121BF7E7F0B51C0C00D054
:103E900080E00CB400251C0A04D11B02160E33432B
:103EA000120208351C0B04D11B01160F33431201FB
:103EB00004359C0B04D19B00960F334392000235CE
:103EC000DC0B02D192185B4101351C00971864414C
:103ED0000134464F7C66464C3C660E0CFFE7FFE71C
:103EE000FFE7C0463C6F6643360C7703BE4697B289
:103EF0007743C01B00D20139C01B00D201399FB2E9
:103F00007743C91BC91B170C77437E04FF0B801B2B
:103F1000B941CE086643360C0C2D33DBB644120B88
:103F20001F053A431B0B97B27743C01B00D20139E0
:103F30009FB27743C91B170C77433E043F0C801B8D
:103F4000B941860D8F023E43664329277F1BFE4001
:103F50000C3D7746AF40BF1930BCA2B2ABB2724342
:103F60007343801A9941220C7243130C1204801A75
:103F7000994102000B000137001BA941F9D2781EBC
:103F80000021F0BD0C277F1BFE4077467F0BAF4022
:103F9000FF19E0E700245D1C07D0144F7D663966E9
:103FA000FFE7FFE7FFE7FFE73C6F95B29EB265438F
:103FB0006643401BB141150C1E0C65436643360435
:103FC0002F0C3E432D04401BB141994204D2020004
:103FD0000B0020000021F0BD01D19042F7D3801AE0
:103FE000994101349942F2D3F6E70000000000D075
:103FF000FFFFFFFF48404140484018B41B4B5B683F
:10400000FC46019308BD04DFC342001018B4174BEF
:104010001B68FC46019308BD00DFCD4200109446AA
:10402000134A926F920809D2624618B40F4BDB68AC
:10403000FC46019308BD0CDF854500100C4AF0B525
:10404000146E556E576F166F6246FFF7EEFF084A03
:104050001466556657671667F0BD18B4034B9B6826
:10406000FC46019308BD08DF2944001010450020DC
:10407000000000D0FFB550404240504059404B40F6
:10408000594000E0FFB5154F4C00640D03D0BC4211
:1040900004D10C0314D80020090D09055C00640D3F
:1040A00003D0BC4204D11C030AD800221B0D1B05FF
:1040B00001264B4009D44B4003D58B4200D18242AC
:1040C000FFBD9942FCD19042FFBD0B43DB18034377
:1040D0001343F5D0C9434918FFBD0000FF07000096
:1040E00000B5FFF7CFFF804100BDC04600B5FFF728
:1040F000C1FF01D9002000BD012000BD00B5FFF7C0
:10410000B9FF804100BD012040054A00121804D8C3
:104110005A00121801D80020704701207047002073
:10412000704700000021002805D17047C1174840A2
:10413000401AFAD0C90713B5064B1B6898470CBC48
:10414000441CA2401005120B0349091B0905194321
:10415000114310BD104600201F04000010B54C0094
:10416000620D8023D218DB00D21A5B057E2A10DD97
:104170009E3A13DACC170903490819435242D14039
:10418000640001341532202A05DAD0400843604328
:1041900010BD002010BD0846604310BDC80FC018F8
:1041A000013810BD18B4044B5B6AFC46019308BD8E
:1041B00024DF35470010000010450020132370B5A0
:1041C0001C78012C1ED019DD2148FFF789FC060060
:1041D0002048FFF785FC023803789B007F2B31DDF8
:1041E0001D4D80223100280000F09CFB022C13D0D2
:1041F0001A48FFF76DFC1A4B186070BD194A164D2E
:10420000AA64F5E7144D174A29002B00803104C336
:104210008B42FCD1AA64EBE7134B1A88B5231B022F
:104220009A420CD1114A124B12889A4207D1114A74
:10423000114B12889A4202D10A4AAA64D8E7002098
:10424000FEF75EFA32210D4B0D4A0E48FEF7B0F92B
:104250005344000053460000104500204C3300003A
:10426000104600208942001054380000D838000061
:10427000494600009C38000059460000B85700101D
:10428000805D00100C58001007B56046002800D172
:1042900000BE01880A0A0230DF2AFAD1C9B28208B8
:1042A00004D3028840880004104300E00068024AFA
:1042B0005050039007BD0000104500200FB403BC10
:1042C0000CBCF0B50124E407634000E0F0B50C0D30
:1042D000CF0F661E3605891B640503D3C9434042D0
:1042E00000D30131640D03D0661CF60A07D0E41B2D
:1042F00000207F00791C89078912803C24031D0D52
:10430000DF0F6E1E36059B1B6D0503D3DB43524248
:1043100000D301336D0D03D06E1CF60A07D0ED1BE0
:1043200000227F007B1C9B079B12803D2D032F1BCF
:10433000661B58D4A446202E46DA20371400BC4011
:104340001D00BD40F24033412A4380185941CB0F34
:1043500005D0C943C04300226442504151416246E6
:104360004D0D28D10D0D07D100281FD02419404133
:104370004941013A0D0DF9D0640006D3013000D354
:104380000131002C01D140084000013A0BD4941CAB
:10439000E40A04D112051144DB071944F0BDD90722
:1043A000204B194300E0D9070020F0BD0029DDD1E2
:1043B000002CDBD1F0BD0132C6074008CD072843F1
:1043C0004908002EE1D0D9E73C2E29DA203E4037BB
:1043D0001400BC4000D00124F24014431A00BB403A
:1043E0001C43D317ACE7AC46202F08DA2036040074
:1043F000B4400D00B540F84039412843A5E73C2FB3
:104400000CDA203F40360400B44000D00124F840CC
:1044100004430800B1400C43C117EAE7100019003B
:10442000002494E70000F07FF0B50C0D661E360501
:10443000891BE60A6405640D02D0651CED0A04D0F0
:10444000002001210905803C2403A4461C0D671EA1
:104450003F05DB1BE70A6405640D02D0651CED0A0D
:1044600004D0002201231B05803C240377406444D0
:1044700097B484B296B27443070C7E43150C6F4315
:1044800080B26843361802D3012000043F1830047C
:10449000350C00197D41844688B29AB250430C0C09
:1044A00062431F0C7C438EB27E43921902D30126D5
:1044B0003604A4191604170C3618674101BC81B2E2
:1044C0009AB25143040C62431B0C5C4380B25843C4
:1044D000121802D30120000424181004130C4018F1
:1044E00063412D185E410020474106BC88B293B25B
:1044F00058430C0C6343120C544389B251435B186C
:1045000002D301210904641819041A0C0918624124
:104510006D1856410020474118BCF902720D114335
:10452000F0026A0D1043ED020A0D03D16D194041EE
:104530004941013B124E9B1B7600B3420ED26D00E7
:1045400007D30130002671416646354301D140084A
:1045500040001B05C918E4072144F0BD0BDA013304
:1045600006D1013004D101314F0D01D04908F2E7E5
:10457000E1070020F0BD013631050020EBE7000027
:10458000FF030000F0B51C0D671E3F05DB1BE70AAB
:104590006405640D02D0661CF60A04D000220123D3
:1045A0001B05803C2403D0252D060026F6432E66ED
:1045B0001E096E66CE0FF619B44649004F0D02D0A3
:1045C0007E1CF60A03D000200021403F3F033E1B23
:1045D000B600B444013F7F05C91B49082E6F013660
:1045E00076089C02950D25437543ED137543AD1375
:1045F00001356D10F603761B0CB4CC02450D2C432F
:10460000A2B2B3B25A43270C7B43350C6F43A4B21A
:104610006C431B1902D3012424043F191C041D0CF4
:10462000A4187D4124196D41009A91B2ACB2614346
:10463000170C7C432B0C5F4392B25A43A41802D34D
:1046400001221204BF182204230C52187B41019C42
:104650006C431B19520ED9010A434401A01A81B2BE
:10466000B2B2514303145A43360C734387B27743B3
:10467000D617D21900277E4136049B191704160C51
:104680007F185E417316ED18F301002680337541E3
:10469000A90F06D16400690AE8055B0A184309D22C
:1046A0002FE00422944480337541A90AA8059B0A8F
:1046B000184326D3404149412404009A019B0D0030
:1046C0005543641B4343E41A95B286B27543170CF5
:1046D0007E43030C5F4392B25A43B61802D30122C1
:1046E0001204BF183204330C52197B4152429C41D0
:1046F000002C02D40022013051414008CA07104367
:10470000490802B06246D7079210084BD218084BEE
:104710009A4203D212058918C919F0BD0020002A57
:1047200001DC3900F0BD01331905F5E7FD03000098
:10473000FE070000002200B5203200F004F8080057
:1047400000BD000000220B150AD410B5944600F0FD
:1047500031F81414013400DA0021CB17144C20472F
:104760000020002170476244343A0CD40C2A07DA46
:1047700004009140904052422032D440214310BD69
:10478000D843D94310BD203207D40C46944052423E
:1047900020321141D040204310BD0800C9172032FB
:1047A00003D452422032104110BD1800190010BD30
:1047B000674700100A0DCC0F531E1B05C91A52057E
:1047C00003D3C943404200D30131520D03D0531CDF
:1047D000DB0A07D0121B00206400611C89078912C4
:1047E000803A1203014BD21A70470000FF03000009
:1047F000132310B527481C78FFF772F90100012C2C
:104800000FD008DD831E1B789B007F2B3CDD8022B0
:10481000214800F087F82148FFF75AF9204B18602B
:1048200010BD1D4C5422200000F07CF81D4A1E4B88
:1048300012889A4225D1A72292011C4B12889A42D3
:104840001FD11B4B1A881B4B9A421AD194231A4A28
:104850009B0112889A4214D1184B1A88184B9A421D
:104860000FD1184A184B12689A420AD1230021002E
:10487000164A5433803104C39942FCD12262E2616A
:10488000C9E71348FDF73CFF4221124B124A134877
:10489000FDF78EFE53460000144600204C33000006
:1048A00010460020EE290000C40F0000C20D0000D9
:1048B000962B0000C0B50000182B0000CC2A000089
:1048C00010B50000FC2C000051ED8764E148001099
:1048D0007C4F00105C580010945D00109058001040
:1048E00007B56046002800D100BE01880A0A0230E0
:1048F000DF2AFAD1C9B2820804D3028840880004B2
:10490000104300E00068024A5050039007BD0000C9
:104910001446002001480421014B1847B002002032
:10492000F13A0010014B5B6818470000B00200200C
:10493000030010B5080011001B68984710BDC04661
:10494000F0B5C64600B5437D07000D001600002BEC
:1049500038D0002A2EDD00216A1E90466A5C037D55
:104960004C1C00200A2A0CD0A64216D043461B5DE0
:1049700021000D3B5A4253416A5CDBB24C1C0A2AAF
:10498000F2D1002BF0D1814217DC022110483B68A4
:104990009847A64207D02000E8E7864203DD311A97
:1049A0003B6828189847AD19013D2B780D3B5A42BA
:1049B00053413B7580BCB846F0BD091A3B682818C6
:1049C0009847E2E70368110028009847F2E7C046DD
:1049D000CC5D0010F8B50F4B05001C68002C15D0FD
:1049E0000D4E071D02E02469002C0FD02368002B18
:1049F000F9D03368002B01D0A342F4D12000390054
:104A00002A68FFF79DFF2469002CEFD100232B605B
:104A1000F8BDC046E0440020E44400200B6870B5B7
:104A200005000C00802B04D05A1C2260E41825716C
:104A300070BD0800FFF7CEFF2368F5E73F2110B5F2
:104A4000024B034A0348FDF7B3FDC046A84E0010D1
:104A5000D05D0010C44E001010B5FDF787F80200BD
:104A60000B1E0EDB0021084812184B41802109065D
:104A70008B4202D30122054B5242054800F00CFA4A
:104A800010BDFFF7DBFFC04640420F00FFFFFF7F76
:104A9000D8020020F0B55746DE464E464546E0B502
:104AA00083B007000D0091461C00FFF7D5FF82463A
:104AB0006B1C03D1380000F0A5F90500002C2FD0A5
:104AC0001B4B98461B4B1C68002C1FD00A231A4E08
:104AD0009B4602E02469002C18D02368002BF9D0F3
:104AE0003368002B01D0A342F4D12A003900200002
:104AF000C0474B46002BEDD06B465A462000DA717A
:104B0000D91D0122C0472469002CE6D15346002B51
:104B100009D103B0F0BCBB46B246A946A046F0BDE1
:104B2000064B9846CEE7064800F09EF9F1E7C046EE
:104B300031490010E0440020E444002041490010C5
:104B4000D802002070B5040000F05CF900230100D9
:104B5000050001222000FFF79DFF064B1C68002C7A
:104B600006D06368002B00D098472469002CF8D148
:104B7000280070BDE04400200A4A1368002B05D1CC
:104B80000CE01A001B691032002B07D09842F8D1B4
:104B9000002902D103691360016170470029FCD02C
:104BA0001060FAE7E044002070B5A2B00D000400E8
:104BB000FFF752FF00230600019322002B000F484D
:104BC00001A9FEF76DFF019B0500002B02D001A893
:104BD000FFF700FF0A4B1C68002C06D06368002B0F
:104BE00000D098472469002CF8D1002E02D128006B
:104BF00022B070BD034800F037F9F8E71D4A0010F5
:104C0000E0440020D80200200FB400B583B004A90E
:104C100001C90191FFF7C8FF03B008BC04B01847F1
:104C200010B500F0CBF8012010BDC046F0B500294A
:104C300015DD0E4B0D271A680D4B0E4CD3185D4237
:104C40006B41451820215B001E5F0478A64207D007
:104C500093691942FCD101301460A842F5D1F0BD2E
:104C600093691942FCD11760F2E7C0462C47002037
:104C70000080FCBF28470020214B70B504000D1EAA
:104C80001E682CDD002010211E4B013C1A68936920
:104C9000194215D1013093691942FCD1136823548C
:104CA0008542F4D1002E09D0502338219363536BF1
:104CB0003432194080235B011343196028000DE052
:104CC000002E09D0502338219363536B343219409E
:104CD00080235B011A43116000280ED070BD002EA6
:104CE0000BD050223821074B1B689A635A6B343320
:104CF0001140802252011343196003204042EDE726
:104D0000704400202C470020064B10B51B68002B78
:104D100006D00021044A12689163044A106898473B
:104D200010BDC046704400202C4700207444002071
:104D30001D4BF0B51A68C64698461C4B0E00D3189A
:104D400059424B411A4F14331C00050000B53B6813
:104D5000002807D0002B11D0164B3D601E6080BC90
:104D6000B846F0BD002BF7D0906300212000FCF77F
:104D700049F820001049FCF793F8EDE720000E49B0
:104D8000FCF75AF801212000FCF73CF8434650227A
:104D900038211B689A635A6B3433114080225201C8
:104DA00013431960D8E7C0462C4700200080FCBFA1
:104DB0007044002074440020094D00100C4B10B5C5
:104DC0001B780C4B0C4C1B780C4B022100202360F1
:104DD000FBF790FF02210120FBF78CFFE121206807
:104DE0004902FDF7D9F901210548FFF7C5FE10BDBD
:104DF0001C5E0010185E00102C470020004003408D
:104E0000C002002010B583070AD00300032102E08E
:104E100001330B4205D01A78002AF9D1181A10BDB7
:104E2000030019680C4A0D4C8A188A4322420FD19C
:104E30005968094A04338A188A43224208D15968BA
:104E4000054A04338A188A432242F1D000E0013334
:104E50001A78002AFBD1E1E7FFFEFEFE8080808009
:104E6000F8B5C0460000000001B40248844601BC09
:104E7000604700BFB101002001B40248844601BC74
:104E8000604700BFF901002001B40248844601BC1C
:104E9000604700BFF901002001B40248844601BC0C
:084EA000604700BF5101002032
:104EA80075735F73696E63655F626F6F74203C3DF5
:104EB80020494E5436345F4D415800002F557365D4
:104EC80072732F617474696C696F2F2E7069636FC8
:104ED8002D73646B2F73646B2F312E352E312F7326
:104EE80072632F636F6D6D6F6E2F7069636F5F6292
:104EF8006173652F696E636C7564652F7069636F84
:104F08002F74797065732E680000000044202564B2
:104F18002025640A000000005461736B20320000F1
:104F2800462025642025640A000000005461736B44
:104F3800203100005461736B203000005461736BA2
:104F48003A2025640A000000502025642025640AC0
:104F580000000000522025642025640A000000009B
:104F68004D2025642025640A0000000049444C4572
:104F78002025640A0000000030783163203D3D2080
:104F8800282A696E7374293E3E313175000000008D
:104F98002F55736572732F617474696C696F2F2E46
:104FA8007069636F2D73646B2F73646B2F312E35AB
:104FB8002E312F7372632F7270325F636F6D6D6F56
:104FC8006E2F68617264776172655F6972712F69AB
:104FD80072712E630000000063757272656E742032
:104FE8003D3D205F5F756E68616E646C65645F75DA
:104FF8007365725F697271207C7C2063757272655B
:105008006E74203D3D2068616E646C65720000001E
:105018006972715F68616E6465725F636861696E09
:105028005F667265655F736C6F745F686561642045
:105038003E3D203000000000767461626C655F6858
:10504800616E646C6572203D3D205F5F756E6861BE
:105058006E646C65645F757365725F697271000078
:1050680064656C7461203E3D202D32303438202632
:10507800262064656C7461203C3D20323034362033
:10508800262620212864656C746120262031290099
:10509800212828282875696E747074725F742976BF
:1050A8007461626C655F68616E646C657229202D3D
:1050B80020282875696E747074725F74296972711A
:1050C8005F68616E646C65725F636861696E5F7367
:1050D8006C6F747329202D2031292573697A656FC7
:1050E8006628737472756374206972715F68616E83
:1050F800646C65725F636861696E5F736C6F742955
:105108002900000021657863657074696F6E207CE2
:105118007C20657863657074696F6E203D3D206EF4
:10512800756D202B20565441424C455F46495253D9
:10513800545F495251000000212864656C74612055
:105148003E3E20313175290066616C7365000000B0
:1051580069735F7368617265645F6972715F7261B8
:10516800775F68616E646C657228736C6F745F68D2
:10517800616E646C65722900657863657074696F27
:105188006E000000666F756E64000000746F7461D5
:105198006C0000002F55736572732F617474696C0D
:1051A800696F2F2E7069636F2D73646B2F73646B37
:1051B8002F312E352E312F7372632F636F6D6D6F04
:1051C8006E2F7069636F5F73796E632F6D75746589
:1051D800782E63006D74782D3E636F72652E737040
:1051E800696E5F6C6F636B006C6F636B5F69735F95
:1051F8006F776E65725F69645F76616C6964286D4C
:1052080074782D3E6F776E65722900006D74782D65
:105218003E656E7465725F636F756E7400000000A2
:105228006964202626206964203C3D20706F6F6CDD
:105238002D3E686561702D3E6D61785F6E6F6465A7
:10524800730000002F55736572732F617474696C55
:10525800696F2F2E7069636F2D73646B2F73646B86
:105268002F312E352E312F7372632F636F6D6D6F53
:105278006E2F7069636F5F74696D652F74696D65F2
:105288002E6300006964202626206964203C3D20A6
:10529800686561702D3E6D61785F6E6F646573003F
:1052A8002F55736572732F617474696C696F2F2E33
:1052B8007069636F2D73646B2F73646B2F312E3598
:1052C8002E312F7372632F636F6D6D6F6E2F706940
:1052D800636F5F7574696C2F696E636C7564652F95
:1052E8007069636F2F7574696C2F70686561702EB3
:1052F8006800000064656661756C745F616C61725A
:105308006D5F706F6F6C5F696E697469616C697AE3
:1053180065642829000000006368696C645F69643B
:1053280000000000706172656E745F696420213D41
:10533800206368696C645F6964000000616C617275
:105348006D5F696420213D20706F6F6C2D3E616C2C
:1053580061726D5F696E5F70726F677265737300FB
:10536800726300002170685F636F6E7461696E73A9
:105378005F6E6F646528706F6F6C2D3E6865617035
:105388002C2072657573655F6964290072656D6F9D
:105398007665645F6964203D3D206E6578745F6959
:1053A8006400000063616C6C6261636B0000000064
:1053B800706F6F6C2D3E616C61726D5F696E5F70AE
:1053C800726F6772657373203D3D206D616B655F19
:1053D8007075626C69635F69642869645F6869678E
:1053E800682C206E6578745F6964290069642026DA
:1053F80026202170685F636F6E7461696E735F6EDB
:105408006F646528686561702C2069642900000054
:1054180021686561702D3E667265655F7461696CAF
:105428005F696400486172647761726520616C61CC
:10543800726D20256420616C726561647920636CEB
:1054480061696D656400000074696D65725F6877F5
:105458002D3E696E74732026203175203C3C2061F6
:105468006C61726D5F6E756D000000002F5573657D
:1054780072732F617474696C696F2F2E7069636F12
:105488002D73646B2F73646B2F312E352E312F7370
:1054980072632F7270325F636F6D6D6F6E2F68610C
:1054A8007264776172655F74696D65722F74696D76
:1054B80065722E6300000000726F6F745F6964008C
:1054C8002F55736572732F617474696C696F2F2E11
:1054D8007069636F2D73646B2F73646B2F312E3576
:1054E8002E312F7372632F636F6D6D6F6E2F70691E
:1054F800636F5F7574696C2F70686561702E6300E7
:105508002170685F6765745F6E6F646528686561A0
:10551800702C20726F6F745F6964292D3E73696205
:105528006C696E67000000002170685F6765745FD2
:105538006E6F646528686561702C20726F6F745F88
:105548006964292D3E706172656E74006E65775FBF
:105558007375625F7472656520213D2068656170AE
:105568002D3E726F6F745F69640000007372635F31
:1055780066726571203E3D2066726571000000000C
:105588002F55736572732F617474696C696F2F2E50
:105598007069636F2D73646B2F73646B2F312E35B5
:1055A8002E312F7372632F7270325F636F6D6D6F60
:1055B8006E2F68617264776172655F636C6F636B8D
:1055C800732F636C6F636B732E63000076636F5F7A
:1055D80066726571203E3D20285049434F5F504C0C
:1055E8004C5F56434F5F4D494E5F465245515F4BA6
:1055F800485A202A204B485A292026262076636FAD
:105608005F66726571203C3D20285049434F5F50CA
:105618004C4C5F56434F5F4D41585F465245515F72
:105628004B485A202A204B485A2900002F557365A9
:1056380072732F617474696C696F2F2E7069636F50
:105648002D73646B2F73646B2F312E352E312F73AE
:1056580072632F7270325F636F6D6D6F6E2F68614A
:105668007264776172655F706C6C2F706C6C2E63FE
:10567800000000006662646976203E3D20313620D5
:105688002626206662646976203C3D20333230004D
:1056980028706F73745F64697631203E3D20312035
:1056A800262620706F73745F64697631203C3D2034
:1056B80037292026262028706F73745F6469763234
:1056C800203E3D203120262620706F73745F646968
:1056D8007632203C3D203729000000002C206675DA
:1056E8006E6374696F6E3A20000000006173736521
:1056F8007274696F6E2022257322206661696C6559
:10570800643A2066696C6520222573222C206C6916
:105718006E65202564257325730A000031203D3D00
:10572800202875696E747074725F74296C2D3E73CD
:1057380070696E5F6C6F636B000000002F557365B6
:1057480072732F617474696C696F2F2E7069636F3F
:105758002D73646B2F73646B2F312E352E312F739D
:1057680072632F7270325F636F6D6D6F6E2F706929
:10577800636F5F72756E74696D652F72756E74698B
:105788006D652E63000000000A2A2A2A2050414E27
:105798004943202A2A2A0A00666E692B0000000065
:1057A800666E69006E616E00666E692D000000000D
:1057B8002A282875696E74385F74202A29726F6DDB
:1057C8005F646174615F6C6F6F6B757028726F6D69
:1057D8005F7461626C655F636F6465282753272C6B
:1057E8002027462729292D3229202A2034203E3DEA
:1057F8002053465F5441424C455F56325F53495AE5
:10580800450000002F55736572732F617474696CBD
:10581800696F2F2E7069636F2D73646B2F73646BC0
:105828002F312E352E312F7372632F7270325F63D2
:105838006F6D6D6F6E2F7069636F5F646F75626CEB
:10584800652F646F75626C655F696E69745F726FEE
:105858006D2E63002A282875696E74385F74202AB3
:1058680029726F6D5F7461626C652D3229202A2060
:1058780034203E3D2053465F5441424C455F5632EA
:105888005F53495A450000002F55736572732F61A5
:105898007474696C696F2F2E7069636F2D73646BF4
:1058A8002F73646B2F312E352E312F7372632F7245
:1058B80070325F636F6D6D6F6E2F7069636F5F66B7
:1058C8006C6F61742F666C6F61745F696E69745F69
:1058D800726F6D2E630000004465627567000000FA
:1058E800626F6F74325F7732357130383000000084
:1058F800312E352E310000007069636F0000000002
:105908006B65726E656C000041756720313220321C
:10591800303234005541525420737464696E00006B
:1059280055415254207374646F7574005541525434
:1059380020737464696E202F207374646F7574000B
:105948007570646174655F75735F73696E63655FB5
:10595800626F6F74000000007570646174655F7534
:10596800735F73696E63655F626F6F740000000038
:105978006972715F6164645F7461696C5F746F5FA1
:10598800667265655F6C697374000000696E7365A3
:1059980072745F6272616E63685F616E645F6C6986
:1059A8006E6B00006972715F72656D6F76655F6816
:1059B800616E646C657200006D616B655F62726137
:1059C8006E6368007265736F6C76655F6272616E94
:1059D800636800006972715F7365745F6578636CF2
:1059E80075736976655F68616E646C657200000046
:1059F8006D757465785F6578697400006D75746598
:105A0800785F656E7465725F626C6F636B5F756EED
:105A180074696C00616C61726D5F706F6F6C5F634D
:105A2800616E63656C5F616C61726D00616C61725F
:105A38006D5F706F6F6C5F6765745F6465666175D5
:105A48006C7400006765745F656E7472795F696471
:105A58005F6869676800000070685F667265655F07
:105A68006E6F64650000000070685F6164645F6366
:105A780068696C645F6E6F646500000070685F67DA
:105A880065745F6E6F6465006164645F616C617208
:105A98006D5F756E6465725F6C6F636B000000000C
:105AA8007570646174655F75735F73696E63655F54
:105AB800626F6F7400000000616C61726D5F706FDF
:105AC8006F6C5F616C61726D5F63616C6C62616366
